:020000041000EA
:4000000000400208230100100D00000085010010000000000000000000000000000000000000000000000000000000008101001000000000000000008101001081010010E9
:400040008101001081010010810100108101001081010010810100108101001081010010810100108101001081010010810100108101001081010010810100108101001060
:400080008101001081010010810100108101001081010010810100108101001081010010810100108101001081010010810100108101001081010010810100108101001020
:4000C00010B5064C2378002B07D1054B002B02D0044800E000BF0123237010BD743300080000000058890010084B10B5002B03D00749084800E000BF07480368002B00D1E4
:4001000010BD064B002BFBD09847F9E700000000783300085889001038050008000000007047FFF7FDFF72B60F4C104DAC4209DA21686268A368043B02DBC858D050FAE70E
:400140000C34F3E70A490B4A0020521A02DD043A8850FCDC084809490860BFF34F8F00F091F900F049F8FEE75C9C0210749C021074330008304500080000000808ED00E005
:40018000FEE7FEE700B504207146084202D0EFF3098001E0EFF30880043002F037F9FEE710B5104B984206D00F4B984208D080235B01984215D10021002003F057FA10E0C8
:4001C0000B89122B0AD10B681B78012B03D10222064B5A6002E00222044B9A60C8680FF0BDFC10BD084000000C5000008003324010B529F0FDF810BD10B586B062B62A485C
:4002000000F0C6F900F0EAFB284B1B68586800230222002106F0F2F8254800F0BFFB01E029F0E6F8234B1B78022BF9D1224802F0E9FE01AB214A019201229A8003A814323A
:400240000281020012CB12C203F072FBC2239B001B4AD358DB0523D0144B186842685368013B5360002B04DA416806F097F8C0B204E042681368591C116018782B2802D085
:400280002D2807D00CE001220C4B1A7007320D4B5A6005E00022094B1A700832094B9A60642002F057F8C4E7000008102C050008A101001008450008F101001090330008D5
:4002C000000066400003324010B5002001F0BCFA10BDC04670B56249E0239B00CB580F2213401A00D0329200525807210A40032A05D0042A06D0002A12D15A4814E05A4A58
:40030000106811E01A00C0329200554952581F210A40112A06D0132A04D0FA20C00103E0524801E080200002002B36D14C4BB222D2009A5801211140B125ED005A59120F7C
:40034000032422405B591B0F1C4207D0444C63591B0F03242340012B02D102E0012300E00023002B01D0002901D1032A4BD13C4BB022D2009D58AD03AD0B3D495958C9040D
:40038000C90C9C58240E01231C40013404F07EFA6843210004F07AFA35E0012B33D1304BC822D2009A5801251540C024E4001A59120F03210A401B591B0F194207D02849F9
:4003C0000B591B0F03210B40012B02D102E0012300E00023002B01D0002D01D1032A12D11F4DC022D200AB587F210B40A958090A1F263140AC58240C3440584304F046FA9E
:40040000210004F043FAE0239B00154AD3581B0903221340D840144C6060164B1D692D0AFC32154001351969090E013104F02EFAA060290004F02AFA0500E06020610E4B50
:40044000C0180E4904F022FA20750D4BE818FA21890004F01BFAA061C003E06170BDC0460000264000127A00C000000800366E0184050000000021403F420F0040420F0001
:40048000E703000010B5284802F09CFC274CB022D200A3585B005B08A350E0218900635830208343635080235B04A350204A214BE250A02292010433E250FF221E4BE2504B
:4004C00002F06EFCC0225200A35801218B43A35000F0CAF9FFF7FEFEB0235B055B78002B04D0B0235B055B78DBB200E02123212B03D1124B0022DA605A60114C220080217A
:40050000042000F001FF2000103000F0DBFF0D4B1A685123D35C002B02D00B4801F048F800F02CFB10BDC046E87500100000264001000200840500008C050000E000234062
:400540009433000800450008906E00108023024AD3580320184070470000214010B501F0E8FF084980228C58074B2340074C23438B508823034AD358DB06FAD501F0DDFF47
:4005800010BDC04600002140FCFF00000100FA0570B50500830504D0E821FF310F4801F0FFFE01F0C6FF0400FFF7D0FF032801D1FFF7D4FF0A4AB0239B00D5508021505893
:4005C000084B03400848034353508823044AD358DB06FAD5200001F0B0FF70BDC46E001000002140FCFF00000300FA0510B504002100034801F05AF90028F9D010BDC0468E
:4006000000006640C2239B00034AD358DB05F9D0D0239B00D058704700006640FEE7C046014A024B1A60704701001180000E1F4130B587B07B4A116808230B4313607A4CA0
:4006400003E0012001F0A0FE013C764B1B695B0701D4002CF5D1002C01D1744B00E00023002B02D00520FFF7D9FF7148A021C900435803229343023A134343506D4A11685E
:4006800008688823CB58C31818686B49084018601368186884241B59C01803681B021B0A80256D042B430360106805680359EB1818680140196013683E229A5C002A06D05B
:4006C0005B48E02189004258753CA24342503E229A5C002A06D05648E021890042583024A24342503E229B5C002B07D05049E02292008B588020000603438B5000210120B6
:4007000001F0C0FA0021022001F0BCFA0021032001F0B8FA0021042001F0B4FA0021002001F0B0FA01A8454903000A0032CA32C312CA12C301F0FAFA002802D00420FFF79E
:400740006DFF3B493E4A8B588020000603438B503C4801F0A5FB002802D00420FFF75EFF334C394BE158394A0A40E250E158384A0A40E250E25880252D062A43E250043B6F
:40078000E158344A0A40E250E158334A0A40802189010A43E250E258802109020A43E250204A11682D4B0B401360002002F0DAFA2B4BE2582A43E250E158012291430A432C
:4007C000E2506421002001F039FE1A4B1B683F229A5C052A03D90021224A986881509A6874215B5AD2181168134B0B408C2189010B4313600F4B1A687323D15C703B8B40ED
:4008000019007023D35C7220105C83400B43802109060B438021C9009068435093685B5807B030BD0000274020A1070002004A000000264000450008FF00FFFFE46E0010FC
:40084000087F0000400D030004050000FEFCFFFFFFFF00FFFFF0FFFFFF8FFFFFFFFCFFFF0C050000140C000070B58EB09621002001F0E4FD01F0BAFD002814D101F0A6FDAB
:40088000C0235B003B4AD358DB0705D411003A4A8B585B005B088B503649374A8B588020000603438B50012002F0F4F9334A516C334B0B40E82189010B435364536C1B0A55
:4008C000FF2213403A2B07D12C4A516C2D4B0B40E82189010B43536401AC34220021200005F054FD284D22000021280000F052FA34220021200005F049FD220001212800D5
:4009000000F048FAFFF794FE24220021200005F03DFD2100280000F0D7FB1C4D22002B00143343CB43C243CB43C243CB43C22100174800F0C9FB22002B00383343CB43C207
:4009400043CB43C243CB43C22100124800F0BCFB22002B005C3323CB23C223CB23C223CB23C221000C4800F0AFFBFFF759FE0EB070BDC046000026400C05000000002740AF
:40098000FF00FFFFFFC5FFDF00003240E46E001080023240000332408003324010B5002803D00B4BD862002000E00A4800280DD1094B1B78002B05D1054802F073FA012207
:4009C000054B1A70002801D102F09AFA10BDC046E0000008010016002435000810B5094B1B78002B07D1084A0849094800F072FF0122044B1A70064A1368802109060B43A1
:400A0000136010BD4C350008C84400086071001000006640C00543425841C0B27047C046214B984230D00ED8402831D004D800281FD010282AD031E080282BD080235B00D4
:400A4000984229D02AE0194B984229D007D8A0231B0698420DD0164B984212D01EE0154B98420AD0144B984209D0144B984215D101E0002016E0124814E0124812E012489D
:400A800010E0A020C0030DE007480BE00F4809E00F4807E00F4805E0034803E00E4801E0A420C0037047C04606005200010000F0090000A0040000F0050000F0030000F06B
:400AC000010052000200520003005200010050000200500005005200FF00520070B5124B1A683123D35C002B04D1C421FF310F4801F056FC0C4B1D682C00B423EB582A6AC3
:400B0000944663441B68002B0BDB094B1868FFF787FF6B6801229A6063689B68002BFBD100E0044870BDC04600450008A0710010503500080200500010B50D4B1861002831
:400B400005D002230370FD33437000234380094B1B6850229A5C002A08D051229B5C002B04D04F3A0449002000F0DCFD10BDC0465035000800450008B105000810B502485C
:400B80001430FFF7D9FF10BD5035000870B504000D00FFF73FFF002836D0002D36D0FFF799FB1B4B1B4A1A6000225A609C60DD60194B1B6852329A5C002A1FD01A68842179
:400BC0005B58D31819681A68120AFF2313405A1C0B0E01335343114C5C43114B1868FA21890003F053FE0100200003F04FFE0D4BC1188020400006F043F908E0002180205D
:400C0000400006F03DF902E0074800E0064870BD503500080001000500450008C0EA2101C4000008482600000600520010B5FFF755FF10BD10B50400FFF7ECFE00283ED0C3
:400C4000FFF748FBE02252051E4B1A601E4B1B78002B05D01B4A1368802149000B431360184B5C6000229A60DA60184B1B6854329A5C002A1ED01A6884215B58D318196843
:400C80001A68120AFF2313405A1C0B0E013353430F4C5C430F4B1868FA21890003F0F6FD0100200003F0F2FD0B4BC118002006F0E7F805E00021002006F0E2F800E007481E
:400CC00010BDC046503500080B0000160045000860F59000C4000008980800000600520070B504000D00FFF795FE002842D0002D42D0FFF7EFFAC022D204204B1A60204B5E
:400D00001B78002B05D01D4A1368802149000B4313601A4B802252005A609C60DD60194B1B68AD3A9A5C002A1FD01A6884215B58D31819681A68120AFF2313405A1C0B0E82
:400D400001335343104C5C43104B1868FA21890003F09CFD0100200003F098FDE1239B00C118002006F08CF807E00021002006F087F802E0064800E0054870BD5035000834
:400D80000B00001600450008808D5B00C400000806005200F8B54F464646C0B406000D001400002800D16FE1002A00D16EE1072903D94521B84801F0F3FA2368012B03D95A
:400DC0004621B54801F0ECFA0F2362689A4303D04721B14801F0E4FA237A1F22934303D04821AD4801F0DCFAE368032B03D94921A94801F0D5FA2369012B03D94A21A648D3
:400E000001F0CEFA6369012B03D94B21A24801F0C7FAA369012B03D94C219F4801F0C0FAE369032B03D94D219B4801F0B9FA236A012B03D94E21984801F0B2FA636A012B45
:400E400003D94F21944801F0ABFAA36A012B03D95021914801F0A4FAE36A032B03D951218D4801F09DFA236B072B03D952218A4801F096FA2768072D03D98849884801F00D
:400E80008FFA012F04D9CA218900854801F088FA002F03D10123AB40736002E00123AB40B3606768072D04D9F12189007C4801F077FA0F233A009A4303D07A49784801F0CE
:400EC0006FFAA900784B1A687D23D35C9B191A6890460F2291468A40404690430200484607408F4017431F60277A072D04D9A22189006B4801F054FA1F233A009A4303D0FA
:400F00006A49674801F04CFA674B1A689369F31ADB0952691B01D318032D0AD81968E8001F22824091431F22174087400F431F600AE02A1F5968D2001F20904081431F20DB
:400F4000074097400F435F60E768082D04D9DD21C900534801F024FA032F03D95449504801F01EFA6900504B1A687C23D35C9B191A689046032291468A40404690430200A3
:400F8000484607408F4017431F602769082D03D94849434801F004FA012F03D94649404801F0FEF9B36901221100A9408B431740AF401F43B76163699846072D03D93F49F4
:400FC000374801F0EDF94346012B03D93C49344801F0E6F934487E230268D35C9B191A6801273900A9408C468A43110042463A40AA400A431A606B0010229046984403212D
:401000000B00424693406246134399467F2203689A5C9446B44463461A684B469A43A3693B40AB401A43E3691940434699400A4363461A6002688023D35CF6183368FF22B4
:40104000944693431800236A1F40636A5A00022313403B43A26A9100042739400B431F00E36AD900182319403B000B43226B520161460A401343AD00FE2292001540AB40E8
:4010800003433360002002E00E4800E00D480CBC90469946F8BDC046E07100102703000020720010C50300000045000889020000E9060000690600006A06000003040000F0
:4010C0000404000001005A0070B505000C0000285DD000295DD0FF230A689A4303D099212D4801F05DF9FF2322699A4303D09A21294801F055F9A3685B0D03D09B212648BA
:4011000001F04EF963685B0A03D09C21224801F047F9E3695B0F03D09D211F4801F040F9236A5B0F03D09E211B4801F039F91B4A11688B69EB1ADB0949691B01CB18216840
:4011400029607D211068415C6918E06808607E211068415C6918206908607F211068415C6918606908607C211068415C6918A06808606168A961116880228A5CAD18A2692E
:401180002A60E2691A60226A5A60002002E0044800E0034870BDC046E07100100045000801005A0070B504000D000A4B1A68B423D3581B181B68002B0ADA0B0C03D00649D8
:4011C000064801F0EDF82D042D0C6560002000E0034870BD00450008D50200006072001001008A0070B505000C000368002B01DA002300E0084B002B0BD1EA60230C03D043
:401200000649074801F0CCF82404240CAC60002000E0014870BDC04601008A00BB0200006072001070B505000C1E03D19921084801F0B6F8074B1A68B423D3585B191B68B3
:40124000002B03DAEB682360002000E0024870BDA07200100045000801008A0070B504000D00234B1A683123D35C834236D9002936D00B68DB0635D13123D35C984204D3E5
:40128000C421FF311B4801F08BF8194B1B681A6AB0215B5A5C431419174E34602B68DA080021686805F072F800212000FFF77AFF3468002D03D111490E4801F071F82A0046
:4012C00000212000FFF78EFF00280DD10A4B18680021FFF767FF002808D108E0084806E0074804E0064802E0064800E0054870BD004500086072001068350008930300003E
:4013000003018A0001018A0010B50400002A17D1002915D1124B1A683123D35C984204D3C421FF310F4801F03BF80D4B1B681A6AB0215B5A5C4314190B4B1C6000200EE075
:40134000002A09D0002909D0074B59609A60191D2000FFF783FF02E0044800E0034810BD00450008607200106835000803018A00F0B583B00D001C4B1B68DC6823688342AA
:401380002DD947097B01C01A012383401E00002903D101F0CEF8019001E000230193124B18680368002B01DA002300E00F4B002B0ED16368BF00DF193B68334203D1334306
:4013C0003B60002400E00A4C0021FFF7EBFE00E0084C002D04D1019801F0AFF800E0064C200003B0F0BDC0466835000801008A00020188000301880004018A00F0B583B02B
:401400000D001C4B1B68DC68236883422DD947097B01C01A012383401E00002903D101F088F8019001E000230193124B18680368002B01DA002300E00F4B002B0ED1636859
:40144000BF00DF193B68334203D0B3433B60002400E00A4C0021FFF7A5FE00E0084C002D04D1019801F069F800E0064C200003B0F0BDC0466835000801008A000201880091
:401480000301880004018A000A4B1B68DA68136883420BD943095901401A0121814052689B009B580B4203D0034802E0034800E003487047683500080101880004018A0070
:4014C00000018800034B1B68002B01D1014B18607047C04674350008F0B5474680B404000F0090461E002D4B1B68002B03D1B5212B4800F055FF294B1B682C2060431C1855
:40150000FF22150035402560330A13406360360CA660244B1A683123D35C9D4204D3C421FF31214800F03CFF1E4B1A68B023D35A6B43116A8C466344236166683223D35CAA
:401540009E4204D3E021FF31174800F029FF154B1B681D6A80367601AD196561A668330C04D0FF214900104800F01AFF330C03D00E490D4800F014FF3604330C1E43AE6055
:401580004346E36127620023A361069B002B02D000229B5EA38104BC9046F0BD74350008E07200100045000860720010FF010000F0B58FB0041E03D15221294800F0F0FEB0
:4015C0006368032B03D95421254800F0E9FEE36A002B03D15821224800F0E2FE236B002B03D159211E4800F0DBFE07AA1300210061C961C321C921C302AD290023001433E5
:40160000C1CBC1C141CB41C10821535E0CAE3380144B1B6836215B5E07998C466344B370089B0D930B9B0A980096A26AE16AFFF753FF2B69E868002200920021FFF74CFF5F
:40164000216B300000F024FE0023F25E002A05DB1F231A401E3B9340034A13600FB0F0BDE07200100045000800E100E0F8B505000F0016001C00002A03D1FD21224800F052
:401680008FFE224B1B68002B03D1FE211E4800F087FE1E4B1B682C2128004843181879435918012213004D68AB401B044568AA4015000269002A20D08F69002F1FD11268B4
:4016C000002A01DA002200E0114A002A19D132681204120C134333600369DE6001238B614C6204692B0C03D00A490B4800F058FE2A04120CA260002004E0084802E008481E
:4017000000E00748F8BDC046E07200107435000801008A00BB0200006072001004028A0007028A0070B504000D0016000F4B1B68002B04D1AF2149000D4800F031FE0B4B53
:401740001B682C2060431C18236A002B04D1B1214900074800F024FEE369B34204D9236AB6009D51002000E0024870BD74350008E07200100A028A0070B582B004000023CD
:401780000193002804D1D221FF312D4800F008FE2369002B04D1E9214900294800F000FE6369002B04D1D421FF31254800F0F8FD236A002B04D1EA214900214800F0F0FD62
:4017C0006269D5682B0C24D01B041360136820691C4B1A68B423D358C3181B68002B18DA01A9FFF71FFD00280ED1019803681E0CFF221340E269934207D29B00226AD3580A
:40180000002B02D0984700E0002631002069FFF7C9FC2D042D0C0FD063691D601B68636A002B03D098470023636203E0A36A002B00D098470023A36163691B6802B070BD8B
:40184000E07200100045000810B50400084B1B68002B04D1B221FF31064800F0A1FD044B1B682C2060431818FFF786FF10BDC04674350008E072001010B50400094B1B6849
:401880009B6CC340DB0703D4BE21074800F088FD044B1B681B691034A402E3580F20184010BDC046004500082073001003681B0501D5802200E0402282239B00C358DB057D
:4018C000DB0D934204D090239B00C150012000E000207047F8B505000C001600002800D1BDE1002900D1BCE10B78022B03D93F21C14800F055FD637B023BDBB2062B03D932
:401900004021BD4800F04CFDA37B002B07D0022B05D0032B03D04121B74800F041FD2123E35C012B03D94221B34800F039FD2823E35C012B03D94321AF4800F031FD2378A1
:40194000012B06D86268083A082393429B415B4208E0A37F002B05D063685A1E062393429B415B42002B03D04521A34800F018FDA368053B042B03D946219F4800F010FD1F
:401980006369FF2B03D947219B4800F009FDA369FF2B03D94821984800F002FDA37C002B0FD02378002B07D1A368092B06D1A37B002B05D0012304E0012302E0012300E0BD
:4019C0000023002B03D04A218B4800F0E9FC8B4B626B1A4203D04C21874800F0E1FC884BE26B1A4203D04D21834800F0D9FC2378022B02D1A37F002B02D063685A1E00E0AE
:401A00000022237F002B02D08021490200E00021A368082B02D880231B0100E0002319430F2313400B438022920413432B60226B2B681B0501D5802300E040239A4203D328
:401A400062216D4800F0ACFCA26B2B681B0501D5802300E040239A4203D36321664800F09FFC626A2B681B0501D5802300E040239A4203D36421604800F092FC23781B0657
:401A8000C022920413402B64637F002B01D0402200E00022A37C002B02D08023DB0000E000231A43237C002B02D08021490000E000210A43637C002B02D08021890000E0D6
:401AC00000210A43E36A013B1B04F020000303401343627B013A07210A4013431900A27B120130231A400B001343AB64237B002B02D08022520000E00022E37B002B04D1EF
:401B00002378022B03D1013B02E0012300E00023002B02D080239B0000E000231343A268013A0F273A401343C02292009446AB50FF2260691040A3691A04FF2109040A40C1
:401B40000243C4239B00EA50E26A6346EB583B4003339A4201D3102A03D97A21264800F01FFCE37F002B04D02378012B03D0002302E0002300E00123002B02D0802040009D
:401B800000E00020627B013A0723134001001943A27B120130231A400B0013436B64237B002B02D08021490000E00021A3685A1E0F2313400B432278012A02D180225202BC
:401BC00000E00022134380229200AB50FF23226B1340C1229200AB502023E35C002B02D08022920400E000222123E35C012B09D180235B0407E0C046E473001092F4FFFFD0
:401C00008CF8FFFF002313432822A25C012A02D18022520200E000221343FF21626A0A4013432B65A36B0B4081229200AB500F4B626B13400E4AAB50E26B0E4B13400E4A52
:401C4000AB50002E0FD0002373603360B360F3603362F3623363094B7363002004E0084802E0074800E00020F8BDC0466D0B0000C80F000073070000880F0000EFCDAB00BC
:401C80000160AA00134B1A683C23D35C83421DD9042904D94B1EFF3B9BB2132B18D8FF290CD91F2319400C4A0300C0339B009950D03080000423835000200AE00723194049
:401CC000D0308000044BC150002002E0034800E002487047004500080000264001004A0010B504000E4B1A683C23D35C834204D8912149000B4800F053FB2300D0339B00B8
:401D0000094A985807231840042807D1C034A400A3581B30184080235B00184310BDC04600450008247400100000264070B5041E03D14A494A4800F033FBB023DB00494A7E
:401D4000D358002B00DA87E0474B22689A4203D94649434800F024FB23689B039B0BE279002A02D08022520400E000221343B022D2003C498B50A2883D4B9A4204D9842145
:401D80008900374800F00CFB2289344B9A4203D93849334800F004FBA388DB04D90C23891B04354A13400B43344A2E498B50A37A0F2B04D986218900294800F0F1FAE37AA0
:401DC0000F2B03D92E49264800F0EAFAA289284B9A4203D92B49224800F0E2FAA37A0F211940E27A1201FF2313400B43A289120225490A401343A27B1207C02189050A4000
:401E00001343B122D20017498B50A379042B03D91E49134800F0C4FA228A104B9A4204D9892189000E4800F0BBFA0E4818494558184B1D40A3791B02E022D20013402B4305
:401E400043504558144B1D40238A1B040A4A13402B434350002000E0104870BDFF0100002474001000002640FFFF030009020000FF1F0000110200000000FF0184050000A9
:401E8000190200001A02000000FF1F00230200008C050000FFF8FFFFFFFF00FE03004A0070B505003149324A8B588020000603438B502C0003E0012000F066FA013CB2237D
:401EC000DB002A4AD3585B0701D4002CF3D12749B122D2008858274B03408020800503438B50002D01D0002C0CD02049B022D2008B588020000603438B5003E0012000F0A0
:401F000043FA013CB223DB00184AD358DB0701D4002CF3D1002D01D0002C08D01349B122D2008B58C020800503438B5013E00F4BB121C90058580F4A02408020800502433A
:401F40005A5008395A58520052085A5008495A58520052085A50002D03D0002C03D0002002E0002000E0044870BDC046000026408C050000FFFFFFCF02004A00F0B5564C3F
:401F8000A04200D9A2E0A24200D9A1E0534B994200D99FE00124524B1C70FF2805D80F2505400E340F26072321E04E4B984205D80F2303400F240026002518E0040A0F23ED
:401FC00023401D00484B984208D80001FF2318402B000343FF240026002508E00402F020000120402B000343404C00260025FF2A0DD81201FF2002401543E020C00218431C
:40200000F0231E43F0231B0323439C4625E03548824207D81004F022120310401843224394461AE0100A0004F0273F03384018432D4B9A4209D81205F0231B0413401843F9
:40204000FF231B0423439C4607E01206F0231B051A401043264B23439C46264B1A68176AB023D45AE200131BFB181B68002BF4DA1B4B5B78002B04D01F4B204AD358002BC9
:4020800018DA1F4A1F4B1A601F4A204B1A601B4AA324E4001359B3431D4315511C4C13596546AB43184310510D4B5960124BD150002000E017480F4B1A68146AB023D15AEC
:4020C000CA00531AE31800225A6004E0114802E0104800E00F48F0BD0F060000FFFFFF0078350008FF040000FF0500000F0F000000000F0F004500081C0500000000264099
:402100001F1F0000080126403D3D0000040126401405000001004A0070B50022264B1A70264B1C68226AB023E55AEC00631BD3181C68002CF4DA224A1468224A944206D100
:40214000214A1468214A944203D0002502E0002500E00125A422D2001D4CA4582402240A00225A60002D24D0002C23D000280FD1114B58680A000023002102F01DFD6208DD
:40218000002380185941220002F0F6FC040011E00A0000232000002102F00EFD064B5A685408002500196941002302F0E5FC040000E00024200070BD7835000800450008C0
:4021C000080126401F1F0000040126403D3D00000000264070B505000C001A4B1B6828229A5C012A15D1820807211000884327D19200AD1AED00FF20A8401B6820339A181E
:402200001168AC4023004B40184004004C40146016E03A229B5EDBB2994203D176210A4800F0BEF8074B1B681B68072215408022120615438022920194466444A400E550A1
:4022400070BDC04600450008AC74001070B504000D000B4B9A680B4B9A420CD1002904D13821FF31084800F09BF81034054BA400E058E55003E01034A400044BE05870BD93
:4022800000ED00E000000008AC74001000000010F0B5474680B482B0061E01914AD04368032B03D93221264800F07AF80023F05E002804DBB178FFF78DFF002400E0214C35
:4022C0000023F15E7368002912DB88081E4FC0308000C55903221140C900FC3290468A4095439A01434613408B402B43C35116E089B20F220A40083A92080632920013489A
:402300001018476803221140C900FF252A008A4097439A012B0013408B403B4343600B4B9A680B4B9A4206D10023F05E0199FFF78DFF00E0034C200002B004BC9046F0BD5E
:40234000AC7400100100560000E100E000ED00E00000000810B5040006E0084B186800F0DFF8074B9C46644480231B029C42F4D8044B1868604300F0D3F810BDDC000008D3
:402380000080FFFFD800000810B5034B1B78584300F0C6F810BDC046D400000801BEFEE770B50D00044C18220100200004F0D6F8A5610020FFF7F2FF500A0008024B1B689F
:4023C0005B6801229A60704700450008054B802212069A649B6C002B01DB002000E002487047C0460000274003004600054B8022120198585B68FF221A4202D08023DB02A5
:402400001843704700002640FEE7C04610B50A4B0268DA6142681A6282685A62C2689A620269DA6242691A6382695A63C2699A63FFF7EAFF10BDC046500A0008F0B54746A3
:4024400080B4002801D0192300E064238B429B415B42304D2C682268A826A45BA41822680327BA433B401A4322602C682268A45BA2181668284CA046264016602C6826686A
:40248000AA229446A25A96193268BA43134333602A6813686546525BD3181A68444614401C60002805D010291BD921291BD8012024E0184B1B6855229A5C914215D9562207
:4024C0009A5C914213D957229A5C914211D958229A5C91420FD959229B5C99420DD804200CE000200AE0022008E0002006E0012004E0022002E0032000E00520054A12687A
:40250000526813680F218B430343136004BC9046F0BDC04600450008FFFCFFFF000000000230800803D001300238FCD1C046C0467047EFF3108072B6704780F31088704785
:4025400010B5B0235B059B899BB2002B04D0B0235B059B899BB201E080235B0080225200934215D1184C23681968683A9B58C9180B680F208343963A13430B6021680C68E5
:402580009C23CB58E318196881430A431A6019E00D4C2368196898229B58C918B02040050A4BC2580A4B13400A681343C022920013430B60226811689C23D358CB18054AFE
:4025C00082581A6010BDC0460045000848180000FFFCFFFF4418000030B5B0235B059B899BB2002B04D0B0235B059B899BB201E080235B0080225200934215D1184C236809
:402600001968683A9B58C9180B680F208343953A13430B6021680C689C23CB58E318196881430A431A6019E00D4D2B68196898229B58C918B0246405C12040012258094BA3
:4026400013400A681343C022920013430B602A6811689C23D358CB1822581A6030BDC04600450008FFFCFFFFB0235B059B899BB2002B04D0B0235B059B899BB201E080233A
:402680005B008022520093420DD1104B1B681A6898215B58D21811680D4B0B40C021C9010B43136011E0094B1B68196898229B58C918084BB0225205D258074B13400A6846
:4026C0001343C022920013430B60704700450008FF8FFFFF18180000FFFCFFFF30B5B0235B059B899BB2002B04D0B0235B059B899BB201E080235B008022520093420DD1E4
:40270000134B1B681A6898215B58D2181168114B0B408021C9010B43136018E00C4D2B68196898229B58C918B02464050A4822580A4B13400A681343C022920013430B60F3
:402740002A6811689C23D358CB1822581A6030BD00450008FF8FFFFF4C180000FFFCFFFF10B5B0235B059B899BB2002B04D0B0235B059B899BB201E080235B00802252008B
:40278000934217D10020FFF777F8B0235B055B78002B04D0B0235B055B78DBB200E02123222B03D8002803D1013004E0012002E0002000E0012010BD10B50400012803D923
:4027C00010491148FFF7ECFD002C03D10F4B5869C00F00E000200E4B1A684423D35C002B0ED0012C0CD1094B9B695B0005D4074B9B69002B03DA012002E0012000E00020CC
:4028000010BDC04662070000F0740010000026400045000870B504000D00154B1A684423D35C002B22D0072803D912491248FFF7B7FD0F4B1A684423D35C002B04D00F4B35
:402840009B690722134000E0002321009C420DD00A4882690726B243344014438461002D04D0994202D9C820FFF78EFD70BDC04600450008CC070000F0740010000026409D
:4028800030B5021E22D0C368002B21D00368002B20D00579A900104BCC582300002103E0934205D019005B69002BF9D1012000E0002000280FD0002C03D1AD00064BEA50AB
:4028C00000E04A6111610023536104E0002002E0002000E0002030BD8435000810B5021E28D00479A100144BC9580B0002E0934204D05B69002BFAD1002000E0012000283C
:4029000019D08A420DD14B69002B05D0A4000A4AA35000221A610EE0A4000022064BE25009E01A69596951615A69002A03D01B69136100E0002010BD8435000830B585B051
:4029400004000D00022807D9042805D0032803D02A492B48FFF724FD6B1EDBB2012B07D9042D05D0082D03D026492548FFF718FDA400254BE458042D13D0012D1CD112E0B8
:40298000A3682B420BD1E3681A6802925B6801930393290002A8236898471B4B5C61646902E0002000E00020002C24D0174B9842E6D1012DE4D11EE0022D01D104E01C0051
:4029C0006369002BFBD104E00F4B5C69002C00D0246900200DE0A3682B4209D1E3681A6802925B6801930393290002A8236898472469002CEFD105B030BDC046B2090000C2
:402A0000F0740010B309000084350008FF00420070B50500012804D9E02149001B48FFF7BFFC1B4B1B68002B05D001210020FFF785FF040000E00024002C20D1FFF779FDA0
:402A40000600134B1B68002B03D004210020FFF775FF104A136904218B431361012D01D030BF00E020BF3000FFF767FD084B1B68002B09D008210020FFF760FF04E00221CF
:402A80000020FFF75BFF044C200070BDF07400108435000800ED00E0FF00420010B5FFF748FD074B5A6807490A40E824A40122435A605A68114059605B68FFF73EFD10BDBB
:402AC00000002640FF00FC0FF8B50700012803D93D493E48FFF764FCB0235B055B78002B04D0B0235B055B78DBB200E021239DB2B0235B059B899BB2002B04D0B0235B056A
:402B00009E89B6B201E0802676000020FEF7B4FE002814D180235B009E4212D1222D12D82B4B1B685C682B4821582B4B19403B068022520413400B432350002404E0274CFB
:402B400002E0264C00E0254C80235B009E4201D1222D03D880235B009E4232D01C4B1A683123D35C002B04D1C421FF311C48FFF717FC174B1B681D6A80235B009E4203D1EA
:402B8000002F05D0174A06E0002F03D0164A02E0164A00E0164A01212800FEF723FB00280FD10B4B1A68B423D3585B191B68002BF7DBEB681B0E1B06A0221206934200D196
:402BC00000242000F8BDC0464C0A0000F07400100045000818F00000FFFFFFFE04004200A0710010010100300300000C010000300100000C70B50400022805D0052803D0AE
:402C000020492148FFF7CCFBFFF7AAFD002836D0FFF78FFC0600022C07D10120FFF754FF051E0FD1FFF78CFC0CE018494B6907229343043A13434B613420FFF7A5FBFFF7A2
:402C40004DFD0025002D16D110494B69072293431A000723234013434B61022C02D1FFF703FD08E09120FFF78FFBFFF7B5FC0020FFF72AFF05003000FFF75FFC00E0044D6F
:402C8000280070BD02070000F07400100000264003004200F8B50500012804D9822109012948FFF77DFBFFF75BFD002849D0FFF740FC0700002D11D10021244B244AD1505D
:402CC000E823DB00B0225205D65CF6B20120FFF7FBFE041E19D1FFF733FC16E0B02252051C4BD0581A4B194958501B49565CF6B21A481A581F218A4314390A431A500320C7
:402D0000FFF742FBFFF7EAFC0024002C15D11049124A8B581F20834306401E438E50002D02D1FFF7A1FC08E00720FFF72DFBFFF753FC0020FFF7C8FE04003800FFF7FDFB21
:402D400000E0074C2000F8BDF0740010307F00000000264010180000410700001CFF000003004200042805D10B4A116804230B4313600FE0094B1A681168A023D358CB182B
:402D80000006C022920410401860034A136804218B4313607047C04610E000E0004500080749C02252008B589B009B088020C00503438B508B588020000603438B50704739
:402DC00000002640014B18607047C0460045000870B5012902D0082944D049E0294B1B78012B47D00320FEF74FFB274B984243D001F000FD012841D0022005F04CFF050076
:402E0000FFF797FB214B186026F0F6FA0400062817D0022D0AD1022013F084FC032C01D0052C10D1002810D0194C13E0012013F079FC022C0BD000280BD1FFF7E9FD144C04
:402E400008E0002406E0124C04E0002402E0104C00E00F4C0E4B9C4211D10C4B1868FFF76CFB0CE0094B1868FFF767FB002406E0074C04E0064C02E0054C00E0044C200006
:402E800070BDC0460845000801018800BC350008FF00420010B50248FFF720FD10BDC0460802000810B5002817D00D4B5860C36A002B01D00A4A936000240A4B1C700A4B11
:402EC0001C700A4B1C600A4B1C7000F0C7FB094B1C70094B1C70002000E0084810BDC046BC350008184500081C450008204500081D450008074500080C450008010016009D
:402F000070B59AB016AE102510222F49300003F034FA03AC4C220021200003F037FA2B4B0393A6602A4BA3810423A373294A526812692261284A62611B2222836283183A4B
:402F4000227763770233A377E5771A33E5540133E5546F322333E252713A0433E2541F48FFF78EFC05F091FE09A805F0F9FE002827D11B4B0493174B5B68996B002904D0B2
:402F800022222E30684403F0F8F903A805F090FE002813D10122134B1A700023124A1370124A13700B4B5B6801A81A6A01929B6ADB8883800823C3800DF046FC00220C4B4F
:402FC0001A601AB070BDC046A0760010753A0010E8280000BC35000896100000080200088C0A000808450008104500081145000820450008014B024AD050704778F00100C1
:4030000000003C40002803D0024BD860002000E001487047BC3500080100160010B51AF023F9044B1B68002B02D0002800D0984710BDC046C835000810B5002809D0FA2338
:40304000FF33994207D80A00044903F096F9002002E0034800E0024810BDC0460708001601001600F0B55F4656464D464446F0B4B14CA54481460E00904605930B00AF4A31
:40308000914204D942468A18AD498A4211D9AD4A934204D94246B218AB498A4209D9AB4A934200D823E14346F318A94A934200D922E1A84B5B695B0010D5A64B5B69072438
:4030C0001C40022C25D10520FFF794FD0190A24B9842F8D003940123049324E09F4B9D4AD3581F221A40E823DB00B0214905CB5C9B1A5A1E9341DBB20493002B0FD101201A
:40310000FFF7C8FD944B9842F9D001900523039309E00394012304930023019303E005230393002301938E4B019A9A4204D1D621FF318C48FFF734F9F0231B069C466644B6
:40314000730A9A465C0200210320FEF711F90028F9D100250023029399E0B4421BD3BD4219D24A4652191078804606A84146C154594600290DD1802149058846A0444146DA
:4031800009786846017001781278914201D001229346013505E080225205A218127806A8C2540134013304E0002100238B46844647466D4A9342D0D959466046B846002956
:4031C00062D0019B002B5FD1059B002B51D1C83300951D00B3465646A24680231B03F7187F023800FDF726FD0400013D0120FFF7CBF8A423DB0322001A409A4201D1002DD7
:40320000EBD122000294009D5446B2465E46574B9A4205D1FDF70AFD554B9842FAD00290029B002B19D1C83300971F00A34606A90098FDF755FD0400013F0120FFF7A4F852
:40324000A423DB0322001A409A4204D1002FEED102945C4601E002945C46444B029A9A4211D1FDF7E3FC424B9842FAD0029001200AE0802000035044400206A9FDF786FC15
:403280000290012000E0012001239C46E244029B019A134301D1454586D3002801D0FFF78DF800210320FEF7A9F80028F9D1019B002B25D1274B5B695B0009D5039B022BB4
:4032C00006D10220FFF796FC0190234B9842F8D0204B1B681B0213D4049B002B10D10020FFF7D8FC01901C4B9842F8D008E000230193204B029303E0002301931D4B029355
:40330000019B002B0CD11C4B029999420AD0194B994207D0002901D1002004E0174802E0174800E0174887239B009D443CBC90469946A246AB46F0BDE4FDFFFFFFFFFF0FFA
:4033400000001010FFFFFF1300800014FF070016000A001600002640040042001CFF000003004200B0770010FF010000010050000200500006005200020052001300160092
:40338000120016000100160010B500280AD0FA23FF33994208D8F93BFF3B0A000349FFF761FE02E0024800E0014810BD070800160100160070B5C0B005000C001600802228
:4033C00052000849684602F0D8FF05E02A7872406B469E5C0135013C002CF7D1300040B070BDC046B076001010B50022FFF7E2FF10BDC0460020704710B50C000088AE234D
:403400005843044B9C4660440A2101F03FFA208010BDC04691FCFFFF10B50C000023C05E044B5843044901F0BBFABD23181A208010BDC0464B2800001027000000207047D4
:4034400010B512F0B7FF10BD10B5FEF79DFF10BD064B1B685B6B00229A5E002A05DB1F231A401E3B9340024A13607047C035000800E100E0094B1B685B6B00229A5E002A44
:403480000ADB1F231A401E3B9340802204498B50BFF34F8FBFF36F8F7047C046C035000800E100E0A023DB00024AD358032018407047C04600002640024B034AD058C00F96
:4034C0007047C0461C0500000000264010B5FEF723FE10BD70B504000D0016000320FDF7D3FF054B984205D0320029002000FEF745FD00E0014870BD0101880003004A00CD
:4035000070B5431ADC171B196340934227D3164B164CE458A405A40D884208D9401A51084018110001F0B2F9201A0ED50AE0081A51084018110001F0A9F900190C4B9842EC
:4035400002D802E0002000E00A48084D06496B589B0A9B028205920D13436B5001E000240020201A70BDC0463C05000000002640FE030000FF03000010B5034B1A688021EB
:403580000902FFF7BDFF10BD2002000810B500F0CDFF0220FFF72EFD094C2368586B0949FEF776FE23685B6B00229A5E002A05DB1F231A401E3B9340034A136010BDC04665
:4035C000C03500081D30001000E100E00420704710B5FEF7AEFF10BD10B5FEF7AEFF10BD10B5FFF715FA10BD10B50021FFF712F910BDC0467047C0467047C04600207047CB
:40360000004870471100160000487047110016000048704711001600004870471100160000487047110016000048704711001600004870471100160000487047110016005A
:403640000048704711001600004870471100160000487047110016007047C04610B5024800F0CEFD10BDC0460402000870B5022875D8002975D10022002306E03C4CE45C72
:40368000012C01D90132D2B20133002BF6D0012A0CD1384B1B681C688A0052189300E3185B681B79023BDBB2012B5CD8324B1B78002B5AD1314B197000281DD12D4E3468FA
:4036C0008B005B189A0023689D18CB00591A4B006168C918898829822168891849686468E45A0C8031680C68A446624452684968CB185B8853801FE001281DD11D4D2C68DD
:403700008B005B189A0023689E18CB00591A4B006168C91889893182216889184E686168C9180989318029680C68A446624452684968CB185B895380114B18700D4B1B6892
:4037400018680E4B1B789A00D3189A00801808F0EFFF00280AD10122074B1A7006E0094804E0084802E0084800E0084870BDC04610450008C0350008114500080645000833
:403780001D4500080100160002001600FF00160070B5002907D1154B1B681B689968CE7F002300250FE0114B1B681B68D968CE7FF6E7CA5C002A0AD00133CC5C1B2C01D0DF
:4037C0009B1800E00125B34201D2002DF1D0002D0BD001338279CA54002204E0D4180134855C0D550132052AF8D970BDC035000870B505000DF046F8041E24D1134B1968E3
:403800002B899A00D2189300143B0A6A944663445A68920117D5EA7B1B695B68C8691B1A50008018C0180A4BC018AA88296802F0A4FDEB7B074AD35C012B04D1064A117823
:4038400002230B431370200070BDC046C0350008144500080C4500080745000870B586B004000289164B1B685B699B889A4223D101A80300220062CA62C300238381A389FD
:40388000C38140230374FFF7B3FF051E0ED123681B789B0705D50B4B1B6821000A48984704E0084B1B68210008489847084A137801218B43137000E00025280006B070BD11
:4038C000C0350008C435000805000100060001001845000810B54288531E9BB2142B1CD84478002C1BD1104B196893009A189300143B0A6A944663445A68920111D51B694D
:403900005868C969411A63001C19641807496118022202F032FD002004E0012002E0012000E0002010BDC046C03500081445000830B587B0041E18D00E4B1B68196A0289AF
:4039400093009A189300143BCB185B689B010ED401AD14220021280002F018FD2B0007CC07C32800FFF744FF02E00E2000E0012007B030BDC035000830B583B004000D00C4
:4039800006220021684602F001FDA3896A4613802389538012231371074B1B78DB0709D4002D04D0557168460CF0B6F802E0E0680CF0D4F803B030BD1845000810B50028D2
:4039C00011D00023002406E09A0011495258904200D1012401330E4A1279934206D2002CF2D0002303E000240A4B00E00023002B0CD1002C0AD1064A1279002A05D10449E8
:403A00009400605001320A7100E0034B180010BD24450008010016000300160070B506000D000020002406E0A200074BD3582900300098470134044B1B799C4203D2034B0E
:403A40001B78DB07F0D470BD24450008184500088379002B06D000200AE0C25C002A06D1013300E00023052BF7D9002000E001207047C046F0B5474680B48CB004000D001C
:403A8000C54A117801230B43DBB21370C34B984200D178E232D8C24B984200D1DAE015D8C04B984200D1FEE007D8023B984265D0BD4B984200D1F2E087E3BC4B984200D110
:403AC0002FE1BB4B984200D17AE37EE3B94B98424BD008D8B84B984200D1ADE0B74B984200D1A9E071E3B64B984200D14FE200D9FEE1B44B984200D127E166E3B24B984242
:403B000000D1FAE216D8B14B984200D17FE208D8AF4B984200D1E7E1AE4B984200D1E7E153E3AD4B984200D1C3E2AC4B984200D1DBE24AE3AA4B984200D108E308D8A94BC0
:403B4000984200D1FBE2A84B984200D1FBE23CE3A64B984200D102E3A54B984200D152E2A44B984200D030E3F5E2280005F042FA894A137801218B43137026E39E4B1E68AE
:403B80003000FFF765FF00280CD0300009F0AEFD994E00213068FFF7FBFD30680121FFF7F7FD37E0954B19688B6A1B79002B22D0B0204005924BC35C3F221340914E865DCC
:403BC000324092011A43904BC65C1F2333401B031343C022D200805C7F220240520413430A6B1370854A1168096B180A48701268126B1B0C9370814E3368186B09F076FD16
:403C00003368186B0021FFF7C3FD3368186B0121FFF7BEFD794B1B68986A02300AF016F908227A4905A802F0A8FB05A809F082FD0222774B1A70C8E20023754A1370754A88
:403C40001370754A13705D4B9C4200D0BDE2FFF721F9BAE2714B1B68DB0700D5B5E205AE03220021300002F091FB644F3B689B6A1B785BB23370300009F076FD3B689B6AC8
:403C80005B785BB2337001277770FF23B370300009F06AFD614B1A6817431F6095E22900FFF7BCFE91E26B78984602225749083105A802F062FB00261DE002AF7300584931
:403CC000C9180222380002F058FB7B78002B02D1544AD35C00E00023012B0BD97300504A9B5C984506D17300D118022205A802F044FB02E00136002EDFD005AB5B78FF2BB8
:403D000004D103D148494948FEF74AFB05AB1B8808AA138007AA13801B0A2978444AD15453E22B78002B00D04FE22B7A002B06D1404B0022DA809A803F4A1A606B60164A2F
:403D4000137801218B4313703FE26B79984602222E49083105A802F010FB00266FE003AF73002F49C9180222380002F006FB7B78002B02D12B4AD35C00E00023012B5DD9A8
:403D80007300274A9B5C984558D17300D118022205A802F0F2FA54E0184500080840000004200000021000000110000003100000041000001930000001300000123000000C
:403DC00006400000044000000C500000015000000A400000104000000250000003500000105000000E5000000F50000017500000016000001450000024020008C0350008D9
:403E0000040600000506000003060000EC7700100845000811450008E0350008204500080445000810450008CA030000F87700101C450008E8350008743300080136002E18
:403E40008DD005AB5B78FF2B04D103D1C849C948FEF7A6FA05AA138809A90B8013801B0A6978C54AD154EB78002B00D0ADE16B7998460222C149083105A802F07EFA002632
:403E80001DE004AF7300BE49C9180222380002F074FA7B78002B02D1BA4AD35C00E00023012B0BD97300B64A9B5C984506D176009119022205A802F060FA02E00136002E62
:403EC000DFD005AB5B78FF2B04D103D1A849A948FEF766FA05AA13880AA90B8013801B0A0121A94AD15470E12900FFF797FD6CE1AB7E002B43D12B7E012B02D10022A34B9B
:403F00001A70EB7E984602229C49083104A802F034FA00261DE005AF73009949C9180222380002F02AFA7B78002B02D1954AD35C00E00023012B0BD97300914A9B5C9845EF
:403F400006D176009119022204A802F016FA02E00136002EDFD004AB5B78FF2B04D103D183498448FEF71CFA04AA13880BA90B8013801B0AFF2B02D0297E854AD15402228F
:403F8000844B1A7021E10222824B1A701DE12900FFF744FD804B1B78DB0700D415E17B4B1B78012B03D10222784B1A700DE1032B03D10022754B1A7007E1022B00D004E1D3
:403FC0000022724B1A70754B1B685868744B1978CA00531A5B00C3189A79002A00D1F4E09B88002B00D1F0E06E4B1B78002B00D0EBE00120FFF73AFB002800D0E5E0012289
:40400000624B1A70E1E02900FFF708FDDDE002222900684602F0B1F96B465B78002B03D10221584AD15405E0002B03D15E495148FEF7B6F968784000514B181802222900A2
:4040400002F09BF96B780021584AD1545800C018574E8019514B1B6819692B785A00D318544A94466344C9180631032202F085F96B785800C01880190221FFF7B5F96B78D6
:404080005A00D318F618B37898420DD04A4B1B6800214A4898476B785800C318444818180322002102F072F929002000FFF7B6FC8BE001AE02222900300002F05EF97378F0
:4040C000002B03D100212F4AD15405E0002B03D135492848FEF764F96B7800212A4AD15429002000FFF79AFC6FE005A82B880380172343800BF01EFD67E02A89531E9BB26F
:40410000142B0ED905A8AB890380428012230371012646710BF000FD1F4A1378B343137053E02800FFF79AFB011E04D129002000FFF774FC01002800FFF71EFC45E0290037
:40414000FFF76CFC41E02900FFF768FC3DE02900FFF764FC39E02900FFF760FC35E02800FFF7B8FB29002000FFF758FC2DE0C046CA030000F87700100C450008EC77001069
:404180000445000810450008E035000811450008E43500080845000818450008C0350008064500081D450008860300001C4500081445000890100000C43500080400010048
:4041C0000B4A117801230B4313700A4B1A7811231A4209D0074A137801218B431370064B1B682900200098470CB004BC9046F0BD0745000818450008C435000800207047C1
:4042000010B5002805D0044B18600448FFF7D6FB00E0034810BDC046F4350008FD4100100100160070B50D000F4B184300040F4BD861FA24A40003E0013C0120FEF7A4F83C
:404240000A4B1B6CDB0701D4002CF5D1002C08D0064B196C01220A431A64DB6A2B80002000E0034870BDC0460080FFFF00003C400400160010B500040E4B184001430E4B58
:40428000D961FA24A40003E0013C0120FEF77CF8094B1B6CDB0701D4002CF5D1002C06D0054A116C01230B431364002000E0034810BDC0460000FF7F00003C4004001600EB
:4042C000F0B583B006000A24C02149017548FFF7D1FF002804D16B46991D7248FFF7A2FF002C01D0013C00E06F48002805D16B46DA88C0235B019A42E6D1002825D16B46CC
:40430000991D6A48FFF78EFF00281ED16B4606331B885B0519D40A248021C9006348FFF7A9FF002804D16B46991D6048FFF77AFF002C01D0013C00E05B48002805D16B46D9
:40434000DA888023DB009A42E6D1002804D16B46991D5748FFF766FF002844D16B4606331B883F229343B278012A15D1F178012904D88FB20222D21B95B201E000250227F9
:40438000402213439BB2302213436A46D380494BCB40494A136013E0F178002904D18FB20122D21B95B201E00025012740229343102213436A46D380404BCB403E4A136034
:4043C0006B469C1DD9883943D9803948FFF752FFF378DB1B03221340AA0092B213432380374A38498B50B0235B055B78002B04D0B0235B055B78DBB200E02123212B4FD091
:40440000314BB0225205D35A9BB2002B48D0002804D16B46991D2D48FFF704FF002824D16B469A1DDB8860218B4318001380B0256D05254C2B5B60310B405B080343244936
:404440000B401380295BC901F020C00001400B43204919401180285BC0239B000340DB00194311801948FFF705FF002804D16B46991D1948FFF7D6FE002811D16B469A1DF6
:40448000D988C023994311800F4BB0204005C05A302303409B00194311800F48FFF7EAFE03B0F0BD021E000004001600031E0000091E00000048E801C00000080024F4007C
:4044C00064F0010000003C4016180000071E00007FF5FFFFFFE7FFFF061E000070B50C004000084901430848FFF7C4FE051E04D106490748FFF7BEFE05006001FDF744FF2B
:40450000280070BD01100000081E0000376800000F1E00000349044A8858102303438B507047C04600003C4070F00100F0B59DB013A9144B0A00180070C870C270C870C2B8
:4045400070C870C20AAD28001A002432D0CAD0C0D0CAD0C0D0CAD0C001AC22004833C1CBC1C2C1CBC1C2C1CBC1C20748FCF7ACFD29000648FCF7A8FD21000548FCF7A4FD91
:404580001DB0F0BD30780010000132408001324000023240F8B5051E00D1DDE0734B5B689B0301D5FEF77AFA714C03E0013C0120FDF7EAFE6F4B704AD358002B01D0002C92
:4045C000F4D16E4B6C4AD358DB0704D56C4BD358DB0700D5C2E0674B674AD358002B00D0BEE0FFF7A3FF644B6649674A99502A78A02109030A4365495A506549654A995055
:40460000802252009B58DB0700D5ABE0624B1B6F1B0709D4614B1868614B984206D9190000F034F9013802E0012000E00020524B1B68002803D040035A4A104300E05A4841
:4046400018434D4B1860494B5B695B0017D501210320FEF7DFF8454B5B699B0F01221340524A116844228A5C002A0ED0002B0CD03E4A93698021C9050B43936105E03E499A
:404680004B4A8858032303438B503B4C3B4AA658484B3343A3504020FDF776FE464BE358DB070BD42700444C01233B514020FDF76BFE03233B514020FDF766FE3F4F374050
:4046C0003F4E3E432D4B2C4AD650FA24E40003E0013C0120FDF758FE3A4B3B4AD358DB0601D4002CF4D1002C01D0002400E0374C002C23D12049364A8858082303438B5076
:404700000120FEF759F8002801D1324E3E43324B1E4001231E43194B174AD650144E03E0013E0120FDF730FE154B134AD358DB0701D4002EF4D1002E00D1244C002C03D104
:404740002800FFF7BDFD0400002C0CD168782978FFF7C4FE040006E0204C04E0204C02E01F4C00E01F4C2000F8BDC04600002640F07E0E006CF0010000003C40A0F00100B6
:40478000B4F0010006000001A4F00100A8F0010001000100ACF0010000F03D40C800000800093D00041A0080040A008000450008C4F0010030000300B0F00100EFFFFEFF10
:4047C0002000020010400000000032400400160068F0010028000200FFFFFBFF010016000300160002001600014B18687047C046C000000810B5002405E02000FDF770FA5B
:40480000032804D00134042CF7D9002000E0012010BDC046A023DB00064AD35803221340012B03D0032B03D1012002E0012000E0002070470000264070B50D00160000290C
:4048400007D1002408E02878FBF7D0FE0135013400E00024B442F6DB200070BD70B50D00160000290CD100240DE0FBF7CBFEC0B2287001340A2806D00D2804D0013500E0F1
:404880000024B442F1DB200070BDC046002243088B4274D303098B425FD3030A8B4244D3030B8B4228D3030C8B420DD3FF22090212BA030C8B4202D31212090265D0030B95
:4048C0008B4219D300E0090AC30B8B4201D3CB03C01A5241830B8B4201D38B03C01A5241430B8B4201D34B03C01A5241030B8B4201D30B03C01A5241C30A8B4201D3CB0229
:40490000C01A5241830A8B4201D38B02C01A5241430A8B4201D34B02C01A5241030A8B4201D30B02C01A5241CDD2C3098B4201D3CB01C01A524183098B4201D38B01C01A3A
:40494000524143098B4201D34B01C01A524103098B4201D30B01C01A5241C3088B4201D3CB00C01A524183088B4201D38B00C01A524143088B4201D34B00C01A5241411A11
:4049800000D20146524110467047FFE701B5002000F0F0F802BDC0460029F7D076E7704703460B437FD4002243088B4274D303098B425FD3030A8B4244D3030B8B4228D3A4
:4049C000030C8B420DD3FF22090212BA030C8B4202D31212090265D0030B8B4219D300E0090AC30B8B4201D3CB03C01A5241830B8B4201D38B03C01A5241430B8B4201D371
:404A00004B03C01A5241030B8B4201D30B03C01A5241C30A8B4201D3CB02C01A5241830A8B4201D38B02C01A5241430A8B4201D34B02C01A5241030A8B4201D30B02C01A84
:404A40005241CDD2C3098B4201D3CB01C01A524183098B4201D38B01C01A524143098B4201D34B01C01A524103098B4201D30B01C01A5241C3088B4201D3CB00C01A5241C8
:404A800083088B4201D38B00C01A524143088B4201D34B00C01A5241411A00D201465241104670475DE0CA0F00D04942031000D34042534000229C4603098B422DD3030AC4
:404AC0008B4212D3FC22890112BA030A8B420CD3890192118B4208D3890192118B4204D389013AD0921100E08909C3098B4201D3CB01C01A524183098B4201D38B01C01A4F
:404B0000524143098B4201D34B01C01A524103098B4201D30B01C01A5241C3088B4201D3CB00C01A524183088B4201D38B00C01A5241D9D243088B4201D34B00C01A5241FF
:404B4000411A00D20146634652415B10104601D34042002B00D54942704763465B1000D3404201B5002000F005F802BD0029F8D016E770477047C046002B11D1002A0FD1C8
:404B8000002900D1002802D00021C943081C07B4024802A14018029003BDC046D9FFFFFF03B4684601B5029800F050F8019B9E4602B00CBC7047C046F0B54F464646C0B4A4
:404BC0001604360C9946330005042C0C070C150C63437E436F4365431C0CAD1964199C46A64203D980235B02984647446346250CEF191D044B464A4343432D0C2404641912
:404C00009918C91920000CBC90469946F0BDC04670B500220C4B04000D0001F05DFA002804D12000290001F0B5F970BD064B00222000290000F05AFE01F0ACF980231B062A
:404C40009C466044F1E7C0460000E041F0B54D46564644465F46F0B4924683B004000D0099468B422FD82CD04946504601F05CFA29000600200001F057FA331A9846203BBA
:404C80009B4600D574E053465A4693401F005346424693401E00AF4229D826D05B46A41BBD41002B00DA79E0002200230092019301235A4693400193012342469340009361
:404CC00019E08242D0D900220023009201930C9B002B01D01C605D600098019903B03CBC90469946A246AB46F0BDA342D6D900220023009201934346002BE8D0FB07720808
:404D00001A4346467B080EE0AB4201D1A2420CD8A41A9D41012024196D410021013E24184D41002E06D0AB42EED9013E24196D41002EF8D15B460098019900196941002B26
:404D400022DB2B005A46D3402A004446E2401C005B461500002B2CDB26009E40330026004746BE403200801A994100900191AEE7424620239B1A5246DA40414613004A46DD
:404D80008A4017001F4382E7424620239B1A2A0046469A402300F3401343D5E74246202300219B1A0022009101920122DA40019282E74246202326009B1ADE402F00B446C2
:404DC000974066463B003343C9E7C046F0B556464D4644465F46F0B41D000E034C00CB0F87B0070092468146360B640D98466AD06D4B9C4235D08022430F12041343F60036
:404E00001E43C3009946694B00279C460023644402932B0368001B0BED0F51469B46400D009500D178E0604B98426CD05B46DA004B0F802109040B4313439B465346D900DC
:404E40005A4B9C46002360444246201A6A40924601901F430F2F00D9B0E05548BF00C0598746374300D088E0002399460233082700260293CDE74346B34649460093029BFC
:404E8000009A9246022B00D0BFE1002153460122002689461A40444B002136030C0D2405360B2643434C1B0526401E437600D207760816434846310007B03CBC9046994623
:404EC000A246AB46F0BD330003434FD0002E00D1BCE1300001F00AF903000B3B1C2B00DDADE11D220100D31A08393A008F408E40DA40B9461643304B00279C4600236044D7
:404F00004442029385E753465A4613432CD1002300219B46023397E70B4320D05B46002B00D19EE1584601F0E1F803000B3B1C2B00DD8FE102005946083A91408B461D2124
:404F4000CB1A5146D9400B0059460B4351469B469140194B9C4660444042002374E7002300219B4601336FE703236DE70023994601330427002602934BE703230C2702930C
:404F800047E70122D51A382D00DCB0E153461A4000210023002689467EE700238026994600223603004B77E7FF07000001FCFFFF70880010FFFF0F80F30300005E4500D99A
:404FC00072E100D16DE1019B4D46013B01930023340002935B461E020B0E1E430B020393330C994633041B0C494620000093FFF74DFC009B3700434306004946200098468E
:40500000FFF7CAFC2C0C09040C43A04509D9E419731EA74200D95CE1A04500D859E1023EE4194346E41A49462000FFF72FFC0300009A80465343494620009B46FFF7ACFC1A
:405040002A040904120C0A4393450DD94346D219013B974200D93AE1934500D837E102235B429C46D219E0445B46D21A4346360433439B460399180C0B0C1D000593090494
:405080005B46090C0C001B041B0C4443049159436B4368431B190D0CEB189C4203D980246402A44660441C0C09041B04090C20185D18824200D2DEE000D1D7E0161A029B76
:4050C0009C465D1BAC459B415B42F61AB74200D106E149463000FFF7D9FB009B04004343494630009846FFF757FC2E0C09040E43B04509D9F619631EB74200D9F3E0B045FE
:4051000000D8F0E0023CF6194346F31A494618000293FFF7BBFB009B06004343494602989846FFF739FC2D0409042D0C0D43A84509D9ED19731EAF4200D9D6E0A84500D831
:40514000D3E0023EED192404210043463143049E059A3000ED1A0B040C0C1B0C58436643534354439A19030C9B189E4203D980225202944664441A0C00041B04000C14198E
:405180001B18A54250D34DD001231943964A019B94466344002B00DCF3E64A0709D00F220A40042A05D00A1D8A42894149428B4411005A46D20108D55A468C4B1A4093466E
:4051C0008022D2009446019B6344894A934200DD5BE65A46C908500708435602514601225B058146360B5B0D0A4055E680231B031E4211D05A461A420ED15E461E433603C3
:40520000360B2A0089467B4B46E6032B00D1E1E0012BBBD11A40BBE61E433603360B4246744B39E6002BB1D07D194A1EAF4252D91100A542A8D1039A9A42A5D1A6E70300D8
:405240003E00283B9E400023994654E600F04EFF203041E603005246283B9A400021934677E6504600F042FF20305EE6029B0026AB4200D323E7039E0299B44661448846FF
:40528000B045B6415B467642F619B218013B0291974213D290424FD800D18EE0161A9B460DE7894500D28EE674084B46F60735005B081D434B46DB0702938BE69742EDD1E0
:4052C0000399029CA142E5D93E1A9B46F7E69846CAE61E00A5E6AC423ED874D0110053E70121494252E71C000EE71E002BE71F2D3CDC20230A0058465B1B9840EA4099402C
:405300000243481E81415E461143EE404B0709D00F230B40042B05D00B00191D99429B415B42F61833023CD55346012200211A40002601238946AFE502235B429C46039C1E
:40534000E344A446029B63449846A045B6417642F6190293B218B1E603988A1E41008142B6417642F619AD19039161E71F225242D31A5A46DA401300202D29D040225846E5
:40538000551BA8400143481E814107200B4318400026002809D00F2200261A401900042ABBD10B0070077602360BDB0803439946012253461A4000236EE502998D42BBD8E5
:4053C0009B4600267BE603989842C5D3110032E70020D7E780265B4636031E433603360B009A8946034B57E5FF030000FFFFFFFEFE070000FF070000F0B55F4656464D4661
:405400004446F0B40D0399464E002B0B87B00700924680469B46760DCC0F002E69D06D4B9E4235D05B468022DD001204430F13432B439B46C3009846674B00279C46002300
:40544000664401934A4615035000D20F53462D0B400D914600D176E05E4A90426CD080225B0F120413435C4AED0094461D4353460022DB00604449463618701C6140029028
:4054800017430F2F00D9AFE05448BF00C759BF465B461F4300D088E000239B469846023308270193CEE74946022A6AD0032A00D109E2012A00D0BBE1114000220023002572
:4054C0009046CCB200212D030A0D12052D0B1543434A1B0515401D436D00E4076D0825434046290007B03CBC90469946A246AB46F0BD034352D05B46002B00D18AE158460B
:4055000000F0F4FD03000B3B1C2B00DD7BE11D22D31A3A0001005D46DA4008398D4013008F402B439B46B8462E4B00279C46002360444642019385E752462A432CD1002568
:405540000023022297E752462A4321D0002D00D154E1280000F0CAFD03000B3B1C2B00DD46E11D21CB1A51460200D9405346083A954093400D431B4A94466044404200229B
:4055800079E7012400220C40124B0025904699E70025002301226EE703226CE700239B4698460133042701934CE703230C27019348E700238025984600242D03054B81E712
:4055C0005D464346019A6FE75D4643462100019A6AE7C046FF07000001FCFFFFB0880010FFFF0F80F30300004246120C91461A0C9446424617044A461B041B0C5A4360464A
:4056000090464A4642431000039262461C003F0C7A437C4342440192220C9246019A5244904506D98246802040028046C24450460390100C049048462404240C12041219D5
:4056400005922A0C2D042D0C68432C00824648467C4350438146200C8046574357444744BA4503D9802040028046C144380C3F04B84648442404240C01900498A044404475
:4056800004905846000C814658460404200C8246070048465F434C464343604660436446834650464443380C8446E4186444A34203D980235B029C46E34448463F04230CA7
:4056C0003F0C2404E419574668436F4384464D46504655434243380C814662444A445B44944503D9802040028446654403983F04834604983F0C8446E344C345804140427E
:405700008246100484460198674484466744A344BC46A345A4419946D44464428742BF41D4458041E144A04699459B417F424042C8440743120CBA18A045A4415F423B0020
:4057400064422343D71843467D19DB0D6D021D435B465A02059B1A43531E9A415B46DB0D1A4343465B021343EA0107D501225C0813402343EA07029E13436D08574AB21822
:40578000002A4BDD580709D00F201840042805D0181D98429B415B42ED180300E80104D54F4A15408022D200B2184E48824200DDE7E60124DB08680718436D0253058046F6
:4057C0002D0B5B0D0C407DE6802259461203114208D0154206D115432D0398462D0B4C46414B6FE65D4615432D032D0B3E4B69E603005546283B9D400023BCE6504600F036
:4058000075FC2030A8E60300283B9F400023BB46984689E600F06AFC203073E60124A61A382E07DD00220C4000230025904649E6029EA3E71F2E20DC20222C001800921BD4
:40584000F040944093400443581E83411C43F540630709D00F232340042B05D023001C1D9C4292415242AD182B021FD5012400220C4001230025904624E61F202C00404230
:40588000821AD440202E1CD04022961BB5402B43581E83410720234318400025002809D00F2200251A401C00042AD8D1230068076D022D0B0124DB08034398460C400023CC
:4058C00000E60025E3E780220124120315432D0398462D0B0C40044BF4E5C046FF030000FFFFFFFEFE070000FF070000F0B557464E464546E0B40E001100F20F9246C50025
:40590000420F180337037400400A4E0F7F0A3043CF4E17435A00640D520DDB0FC900B24200D1E5E001267340A61AB446534500D1AFE0002E00DC0DE1002A3AD103000B43C2
:4059400000D0E4E06B0709D00F232B40042B05D02B1DAB42AD416D427F191D003B0200D488E0BB4B01349C4200D110E13A00B94B51461A4001235007ED0852026405054328
:40598000120B640D0B400021280012030D0D120B64052D0515436208AF4CDB072C401443640064081C4321001CBC90469946A246F0BDA74B9C42C5D080231B0418436346DF
:4059C000382B00DDFDE01F2B00DD30E1624620239B1A02009A40664690460A009940F24046464B1E99413243114363460200DA40691A8D429B410D00BA1A5B42D71A3B0208
:405A000035D57A02530A98464346002B00D1C4E0404600F06BFB0300083B1F2B00DDC5E020222900D21A4746D1409F400A009D403A439C4200DDC0E01C1B631C1F2B00DD1E
:405A4000E4E0202114002800C91AD8408C408D400443DA40681E854117002543002471E7424663461A4300D14CE2674645466B0700D069E7012351467807ED08FA080B40D6
:405A8000054373498C4238D012036405120B640D79E7002E00DC9AE0002A47D06C4A944200D14FE78022120410436246382A00DC08E10143481E81410022C9B24919D21918
:405AC000A942BF410D007F42BF183A0200D442E15F4A0134944200D14EE101205D4A69083A4028400843D507054357089A4629E706000E4300D017E714E72900114300D1E8
:405B0000F9E1802109030A431203120B3BE701235B429846C4446346002B72D1691A8D429B413F1A5B42FF1A0D0068E702000A4300D107E7012252429046C4446246002A71
:405B400000D0E6E06918A942B6413F187642F7190D00BAE7002E00D080E0621C5205520D012A00DCF9E06A1A91464D45B6413A1A7642921B9046120200D499E04D1BA942C6
:405B80008941C71B49427A1A90469A463CE752460123002513400022F5E6280000F0A6FA20300300083B1F2B00DC39E72A002838824000259C4200DC3EE7264FE41A174062
:405BC000C0E60143481E81410022C9B210E7002E00D0F1E0621C94465205520D012A00DCA0E01B4A944500D1C5E06918A94292413F185242D2194908D5070D43570864464C
:405C0000A0E6134B9C4200D0D9E69BE611001F3CE1400C00202B00D180E04021CB1A9A4015436A1E95410027254300241FE763460200203BDA406346202B71D0402366468A
:405C40009B1B98400143481E814111430022CFE6FF070000FFFF7FFFFFFF0F80002C48D0CA4CA24200D1A2E07442A1468024240427434C46382C00DDDBE01F2C00DD44E1B1
:405C80004E462024A41B3E00A640A246B0464C462E00E640B4464646644626435446A5406C1EA54134002C434D46EF400D1B28E04A4643464D461A4300D0A5E6002300249D
:405CC0000025DEE61F2A5ADC66462022921B060096409146B04662460E00D640424616434A4691404A1E9141020060463143C240E4E63C002C435AD0F443A146002C52D186
:405D00004D1BA9428941C71B49427F1A14009A4675E69E4A944200D0C7E613E600227FE700208FE7002C00D0C8E03B002B4300D10FE103000B4300D104E66918A9429B413D
:405D40003F185B42DF193B0200D41AE1904B0D001F406446F6E59A4689E63A002A43002C5CD1002A75D102000A4300D1CAE007000D009A46E6E564460022002581E6624617
:405D80000600203AD6406246B046202A00D1B7E040226646921B904001434246481E8141114300228AE6794CA24200D061E707000D0014009A46C5E5002C41D13C002C435C
:405DC00078D0F443A146002C20D0704CA24271D04C46382C00DDB2E01F2C00DDBCE02026341BA2463C005646B4404E46A0462C00F440A446444666463443A4465446A540F4
:405E000064466E1EB54125434C46E7406D188D4289413F184942CF19140056E6002A2FD102000A4300D184E007000D009A46574C88E53D436F1EBD41ECB200270D1B60E7EC
:405E4000524CA24236D0744280263604A1463743BEE702000A4300D174E56A1A90464545B6413A1A7642921B9446120200D4F7E54D1BA9428941C71B49427F1A9A4661E50A
:405E800002000A433AD0ED087C072C438025FA082D032A4208D0C7082F4205D145072C003A009A46C9080C43670FD200E5001743364C47E507000D00140043E53A002A4393
:405EC00043D002000A4319D0ED087C072C438025FA082D032A4207D0C6082E4204D147073C003200C9080C43D700620FE50017439A46264C26E50022002544E5234C21E59E
:405F0000002049E700230025BBE54C463E00203CE6404C46B446202C31D040244E46A61BB7403D436C1EA54164462C4300270D1BE7E6802200231203144C0025A1E53D43C4
:405F40006F1EBD410027EDB260E707000D000F4CF8E407000D00F5E44E463C00203EF440A0464C46202C0ED040244E46A41BA7403D436F1EBD4144460027254346E7002737
:405F8000CFE70D0073E50027F2E7C046FF070000FFFF7FFF0B0330B5134D1A0B4B005B0DC90F0024AB4211DD104CA34210DC8024640322430E4CE41A1F2C0CDD0D48C31AE1
:405FC000DA4013005C42002900D11C00200030BD094BCC18FAE7E040084CA44663449A4013000343EEE7C046FE0300001D0400003304000013040000FFFFFF7FEDFBFFFFB5
:4060000070B5051E28D000F071F8154B154A1B1AD21A1F2A16DD2C00134A0025D21A94405A052403240B520D002124030B0D240B1B0523430D4C1205234013435B00280068
:40604000590870BD0B212C00081AC440954024035A05240B520DE7E700220024E4E7C0461E0400003304000013040000FFFF0F808446101C62468C46191C634600E0C04615
:406080001FB500F001F9002801D40021C8421FBD10B500F055F84042013010BD10B500F0F3F8002801DB002010BD012010BDC04610B500F0E9F8002801DD002010BD01206D
:4060C00010BDC04610B500F07BF8002801DC002010BD012010BDC04610B500F071F8002801DA002010BD012010BDC0461C2101231B04984201D3000C10391B0A984201D367
:40610000000A08391B09984201D30009043902A2105C40187047C0460403020201010101000000000000000010B5002903D1FFF7DDFF203002E0081CFFF7D8FF10BDC0463E
:40614000F0B55F4656464D464446F0B41F035C00DB0F9A46194B0E034D00C90F8046360B6D0D8B4691463F0B640D9D4219D0134B9C421BD00123A54206D018003CBC9046FC
:406180009946A246AB46F0BDBE42F6D1C845F4D1D34510D0002DF0D1304303005A1E9341EBE7310001230143E7D1E0E73A430123002AE2D1DEE70023DFE7C046FF07000017
:4061C000F0B55F46444656464D46F0B41F033C0B2C4F0E034D00A3465C008446360B6D0DC90F9046640DDB0FBD422BD0254FBC422ED0002D0ED130430700814678427841B9
:40620000002C17D15F463A4314D14B460020002B0AD006E0002C02D15846024301D099421AD00123484218433CBC90469946A246AB46F0BD0028F2D0584258410122404231
:406240001043F1E737000743D0D002204042EBE75F461743CDD0F8E7A542E2DC05DB5E45DFD808D000205E45DED248424841012340421843D8E7C445D3D80020C445F4D340
:40628000D2E7C046FF070000F0B55F464D4644465646F0B41C03240BA4462F4C0F034D005E00C90F80463F0B6D0D8B469146760DDB0FA54220D0284CA64222D0002D12D156
:4062C000384344424441002E20D0002C0DD05C42634101245B421C4320003CBC90469946A246AB46F0BD002E17D05B4519D05B465C4201231C43EFE7390002240143EBD1A6
:40630000D9E7614602241143E6D1D7E761460A43DBD100240028DFD0E9E761460A43E4D1E5E7B54203DD01225C421443D4E7B542CDDB6745DBD809D000246745CCD2594699
:406340004C426141012449420C43C5E7C845CED80024C845F3D3BFE7FF07000030B50024A24208D0035D651C0C5DA34201D0181B02E02C00F4E7002030BD002310B59A423A
:4063800003D0CC5CC4540133F9E710BD03008218934202D019700133FAE7704770B505000C00002804D08369002B01D100F0F2F90F4B9C4201D16C6808E00E4B9C4201D18B
:4063C000AC6803E00C4B9C4200D1EC682100280000F0B6FB002807D16368013B636023685A1C2260187801E00120404270BDC046F88800101889001038890010F0B51D00FA
:40640000514B85B01E6804000F000092002E05D0B369002B02D1300000F0BCF94B4B9C4201D1746808E04A4B9C4201D1B46803E0484B9C4200D1F468009B022B05D0012BB9
:4064400000D97CE0002D00DA79E02100300000F01FF9616B002908D023004433994202D0300000F0B5FA002363630023A3616360A3891B0603D52169300000F0A9FAA289DB
:40648000354B1340A381009B022B21D003AB02AA2100300000F02EFAA3891843A081002D01D1029D01E0002F25D1280000F086FA0195071E1AD1029B0193AB4202D10120CD
:4064C000404206E0019800F079FA071E0ED1F6E700200222A3891343A3810023A3602300473323602361012363612AE08022A389019D1343A381B369002B02D1300000F091
:4065000049F9009B012B03D1A389009A1A43A2810823A2892760134027616561181E0CD001231A40002310009A4204D06D42A360A561180005E0A56003E0A36001E00120A5
:40654000404205B0F0BDC0462C050008F888001018890010388900105CF3FFFF030030B5002A0DD00C7801335D1E013A2C700131002CF5D19A189A4202D01C700133FAE77B
:4065800030BD0000F7B58A8905000C0013075AD44B68002B02DC0B6C002B19DDE76A002F16D000232E682B6080235B011A4001D0606D14E00123216A2800B847431C0ED1D9
:4065C0002B68002B0BD01D2B01D0162B02D12E6000205AE04022A3891343A38155E0A3895B0706D56368C01A636B002B01D0236CC01A00230200216A2800E76AB847A3891B
:40660000421C06D129681D293AD8204ACA40D20736D50022626022692260DB0405D5431C02D12B68002B00D16065616B2E600029CED023004433994202D0280000F0C8F973
:406640000020606321E00F69002FC1D00B680F60DB1B01930023920700D14B69A36003E0019B3F181B1A0193019B002BB0DD019B3A00216A2800A66AB0470028F0DCA389AB
:40668000402201201343A3814042FEBD010040200B6970B505000C00002B01D100201CE0002804D08369002B01D100F073F80B4B9C4201D16C6808E0094B9C4201D1AC6862
:4066C00003E0084B9C4200D1EC680C22A35E002BE4D021002800FFF755FF70BDF8880010188900103889001010B5011E05D1054B0549186800F0DCF803E0044B1868FFF73D
:40670000C7FF10BDF4880010916600102C05000810B5024900F0CCF810BDC04691660010002310B5040003604360836081814366C281036143618361190008225C30FFF7E8
:4067400025FE054B24626362044BA362044BE362044B236310BDC046896C0010B16C0010E96C0010156D001070B568254B1E5D430E002900743100F077F9041E08D0002190
:406780002A00016046600C30A0606832FFF7FEFD200070BD836913B50400002B28D18364C3640365134B144A1B6882620193984201D101238361200000F020F860602000CF
:4067C00000F01CF8A060200000F018F80022E06004216068FFF7A4FF01220921A068FFF79FFF02221221E068FFF79AFF0123A36113BDC046F488001011670010F8B51D4B4F
:4068000006001D68AB69002B02D12800FFF7C2FF4835AC686B68013B05D40C22A75E002F10D06834F7E72B68002B01D02D68F0E704213000FFF798FF28600028F6D10C2324
:40684000336016E0012320005B42E3810233A38167662760A760676027616761A7615C3008223900FFF792FD20006763A763A764E764F8BDF4880010F7B54830040000262A
:406880000191002C12D0A5686768013F0CD4AB89012B07D90E22AB5E013303D02800019B984706436835F0E72468EAE73000FEBDF7B504000700002601914834002C16D017
:4068C0006368A5680093009B013B00930DD4AB89012B08D90E22AB5E013304D029003800019B984706436835EDE72468E6E73000FEBD000070B50E001D000E23C95E90B09E
:406900001400002906DA00232B60B3891B060FD540230FE001AA00F029FA0028F3DBF023029A1B021340054A9B185A4253412B608023DB000020236010B070BD00E0FFFF7D
:40694000F7B502268B8905000C00334210D101AB6A46FFF7CFFF00990700280000F084F800280CD10C22A35E9A0523D43343A3812300473323602361012363611AE08022E8
:406980000D4BAB62A38920601343A381009B20616361019B002B0AD00E23E15E280000F0F7F9002803D00122A3891343A381A3891F43A781F7BDC0461167001010B5034B84
:4069C0000100186800F050F810BDC0462C05000870B50500002944D00C1F2368002B00DAE418280000F0FAF91E4A13681100002B02D16360146031E0A3420DD92268A01862
:406A0000834203D118685B688218226063600C6024E0A24203D813005A68002AF9D11E689819A0420BD12168711858181960824214D110685268411819605A600EE0A0427C
:406A400002D90C232B6009E021686018824203D1106852684118216062605C60280000F0BEF970BDC0440008032370B5CD1C9D43083506000C2D01D20C2501E0002D01DBEF
:406A8000A94202D90C23336048E0300000F0A6F9234B1C681A002100002913D00B685B1B0DD40B2B02D90B60CC181EE08C4202D1636813601AE04B6863600C0016E00C00A9
:406AC0004968E9E7174C2368002B03D1300000F0C9F820602900300000F0C4F8431C18D00323C41C9C43A0420DD12560300000F076F9200007220B30231D9043C31A0ED070
:406B00005A42E2500BE0211A300000F0ABF8431CEBD10C233000336000F061F9002070BDC0440008BC440008092310B5828913400022092B02D1FFF7D7FD0200100010BDC5
:406B4000F8B505000C00002804D08369002B01D1FFF720FE3E4B9C4201D16C6808E03D4B9C4201D1AC6803E03B4B9C4200D1EC68002363600C23E25E93B2990664D45907E0
:406B80001AD4D90605D409232B6037331A43A2815AE0082633420AD021002800FFF778FD002851D1A389A060B343A381A0610422A3891343A38112E0616B00290FD02300DD
:406BC0004433994202D02800FFF702FF0020236C60636360834202D0E36B236036E02369002B03D121002800FFF7AAFE0C23E75EBEB2B3070FD00123A381184B1849186824
:406C0000FFF73AFE0923A7813340092B03D121002800FFF7B7FC23692269236028006369216A656AA84702006060002082420DDCA389824204D120221343A381013805E060
:406C4000402213436060A38101204042F8BDC046F88800101889001038890010F4880010296B0010002370B5064C05000800236000F0EAF8431C03D12368002B00D02B6098
:406C800070BDC0462C45000870B50C000E25495F00F0A6F8002803DB636D1B18636503E0A289024B1340A38170BDC046FFEFFFFFF8B51F008B8905000C001600DB0505D50B
:406CC0000E23C95E0022022300F074F8A289054B28001340A38132000E23E15E3B0000F01FF8F8BDFFEFFFFF70B50C000E25495F00F060F8A389421C03D1054A1340A38182
:406D000004E0802252011343A381606570BDC046FFEFFFFF10B50E23C95E00F015F810BD70B50500080011000022064C22601A00FDF782FD431C03D12368002B00D02B602B
:406D400070BDC0462C450008002370B5064C05000800236000F058F8431C03D12368002B00D02B6070BDC0462C450008002370B5064C050008001100236000F04DF8431C3E
:406D800003D12368002B00D02B6070BD2C450008002370B5064C05000800236000F044F8431C03D12368002B00D02B6070BDC0462C45000870B50500080011000022064C4B
:406DC00022601A0000F038F8431C03D12368002B00D02B6070BDC0462C4500087047704770B50500080011000022064C22601A00FDF734FD431C03D12368002B00D02B60BD
:406E000070BDC0462C45000858220120014B40421A6070472C45000858220120014B40421A6070472C4500085822024B00201A607047C0462C45000858220120014B404280
:406E40001A6070472C450008044A1368002B03D01818106018007047014BF9E7C444000830450008F8B5C046F8BC08BC9E467047F8B5C046F8BC08BC9E46704700000000ED
:406E800001B40248844601BC604700BF05060008030000000100000001000000000000000503600004000000010000000000000001000000060460000800000004350008AD
:406EC000C902001073797374656D5F70736F63365F636D30706C75732E6300000300180003000000F4010000140004010A0009050800000063010000030000000000000061
:406F000000000000680000000000000000000000000000001212000000000000080000000000000000000000006000BA0000000000000000000000000000000000001D1D69
:406F4000020000000000000000000000600000000000000000000000000000000000000000000000000000000100150001000028010000000B00000000180000000000004C
:406F8000020003280100020003000000002A0000000000000300002A0100020103000000040000002C010008040003280100020005000000012A0000000000000500012A75
:406FC00001000201050000000200000034010008060003280100020007000000042A0000000000000700042A0100020107000000080000003C01000808000328010002001D
:4070000009000000A62A0000000000000900A62A010002010900000001000000440100080A000328010002000B000000C92A0000000000000B00C92A010002010B00000000
:40704000010000004C0100080C000028010000000F00000001180000000000000D000328010020000F000000052A0000000000000E00052A000020010F0000000400000055
:40708000540100080F00022901010A030F000000020000005C0100081000002801000008150000001000000064010008110003280100080013000000100000006C01000804
:4070C0001200812A00010809130000000100000074010008130001290100020113000000060000007C010008140003280100020015000000100000008401000815007EBD0D
:407100000100020915000000010000008C0100084B29DBB14AD1F880514022934505FA7B71F2A764F6643385E2471038812A96517A177925D1C9B4989A4449B57EBDD1BDC3
:40714000010003000500070009000B000C000E000F000000100012001300150000000000000000000C00000008000000000200000000000000000000000000000000000062
:407180000000000000000000000000000B0000000000000000000000000000000000000047656E6572617465645F536F757263655C50536F43365C70646C5C64726976656C
:4071C00072732F7065726970686572616C2F6970632F63795F6970635F6472762E68000047656E6572617465645F536F757263655C50536F43365C70646C5C6472697665A5
:4072000072735C7065726970686572616C5C6770696F5C63795F6770696F2E630000000047656E6572617465645F536F757263655C50536F43365C70646C5C6472697665A7
